{
  "contractName": "Voting",
  "abi": [
    {
      "constant": true,
      "inputs": [],
      "name": "isVoting",
      "outputs": [
        {
          "name": "",
          "type": "bool"
        }
      ],
      "payable": false,
      "stateMutability": "view",
      "type": "function"
    },
    {
      "constant": true,
      "inputs": [
        {
          "name": "",
          "type": "address"
        }
      ],
      "name": "votes",
      "outputs": [
        {
          "name": "receiver",
          "type": "address"
        },
        {
          "name": "timestamp",
          "type": "uint256"
        }
      ],
      "payable": false,
      "stateMutability": "view",
      "type": "function"
    },
    {
      "inputs": [],
      "payable": false,
      "stateMutability": "nonpayable",
      "type": "constructor"
    },
    {
      "anonymous": false,
      "inputs": [
        {
          "indexed": true,
          "name": "voter",
          "type": "address"
        },
        {
          "indexed": false,
          "name": "receiver",
          "type": "address"
        },
        {
          "indexed": false,
          "name": "timestamp",
          "type": "uint256"
        }
      ],
      "name": "AddVote",
      "type": "event"
    },
    {
      "anonymous": false,
      "inputs": [
        {
          "indexed": false,
          "name": "voter",
          "type": "address"
        }
      ],
      "name": "RemoveVote",
      "type": "event"
    },
    {
      "anonymous": false,
      "inputs": [
        {
          "indexed": false,
          "name": "startedBy",
          "type": "address"
        }
      ],
      "name": "StartVoting",
      "type": "event"
    },
    {
      "anonymous": false,
      "inputs": [
        {
          "indexed": false,
          "name": "stoppedBy",
          "type": "address"
        }
      ],
      "name": "StopVoting",
      "type": "event"
    },
    {
      "constant": false,
      "inputs": [],
      "name": "startVoting",
      "outputs": [
        {
          "name": "",
          "type": "bool"
        }
      ],
      "payable": false,
      "stateMutability": "nonpayable",
      "type": "function"
    },
    {
      "constant": false,
      "inputs": [],
      "name": "stopVoting",
      "outputs": [
        {
          "name": "",
          "type": "bool"
        }
      ],
      "payable": false,
      "stateMutability": "nonpayable",
      "type": "function"
    },
    {
      "constant": false,
      "inputs": [
        {
          "name": "receiver",
          "type": "address"
        }
      ],
      "name": "addVote",
      "outputs": [
        {
          "name": "",
          "type": "bool"
        }
      ],
      "payable": false,
      "stateMutability": "nonpayable",
      "type": "function"
    },
    {
      "constant": false,
      "inputs": [],
      "name": "removeVote",
      "outputs": [
        {
          "name": "",
          "type": "bool"
        }
      ],
      "payable": false,
      "stateMutability": "nonpayable",
      "type": "function"
    },
    {
      "constant": true,
      "inputs": [
        {
          "name": "voterAddress",
          "type": "address"
        }
      ],
      "name": "getVote",
      "outputs": [
        {
          "name": "candidateAddress",
          "type": "address"
        }
      ],
      "payable": false,
      "stateMutability": "view",
      "type": "function"
    }
  ],
  "bytecode": "0x608060405234801561001057600080fd5b5033600080600060146101000a81548160ff021916908315150217905550816000806101000a81548173ffffffffffffffffffffffffffffffffffffffff021916908373ffffffffffffffffffffffffffffffffffffffff160217905550505033600060405161007f90610122565b808373ffffffffffffffffffffffffffffffffffffffff1673ffffffffffffffffffffffffffffffffffffffff1681526020018215151515815260200192505050604051809103906000f0801580156100dc573d6000803e3d6000fd5b50600160006101000a81548173ffffffffffffffffffffffffffffffffffffffff021916908373ffffffffffffffffffffffffffffffffffffffff16021790555061012f565b61014d80610f4183390190565b610e038061013e6000396000f3fe608060405234801561001057600080fd5b506004361061007d5760003560e01c80636cea0e461161005b5780636cea0e46146100e85780638d337b8114610144578063d8bff5a5146101c8578063fab2f86b146102535761007d565b80631bbef399146100825780631ec6b60a146100a457806349aa4ee2146100c6575b600080fd5b61008a610275565b604051808215151515815260200191505060405180910390f35b6100ac610288565b604051808215151515815260200191505060405180910390f35b6100ce610458565b604051808215151515815260200191505060405180910390f35b61012a600480360360208110156100fe57600080fd5b81019080803573ffffffffffffffffffffffffffffffffffffffff1690602001909291905050506106f8565b604051808215151515815260200191505060405180910390f35b6101866004803603602081101561015a57600080fd5b81019080803573ffffffffffffffffffffffffffffffffffffffff169060200190929190505050610a44565b604051808273ffffffffffffffffffffffffffffffffffffffff1673ffffffffffffffffffffffffffffffffffffffff16815260200191505060405180910390f35b61020a600480360360208110156101de57600080fd5b81019080803573ffffffffffffffffffffffffffffffffffffffff169060200190929190505050610b55565b604051808373ffffffffffffffffffffffffffffffffffffffff1673ffffffffffffffffffffffffffffffffffffffff1681526020018281526020019250505060405180910390f35b61025b610b99565b604051808215151515815260200191505060405180910390f35b600060149054906101000a900460ff1681565b60008060009054906101000a900473ffffffffffffffffffffffffffffffffffffffff1673ffffffffffffffffffffffffffffffffffffffff163373ffffffffffffffffffffffffffffffffffffffff161461032f576040517f08c379a0000000000000000000000000000000000000000000000000000000008152600401808060200182810382526032815260200180610d686032913960400191505060405180910390fd5b600060149054906101000a900460ff16156103b2576040517f08c379a00000000000000000000000000000000000000000000000000000000081526004018080602001828103825260178152602001807f566f74696e6720697320616c7265616479204f50454e2e00000000000000000081525060200191505060405180910390fd5b6001600060146101000a81548160ff0219169083151502179055507f84d66542381393079134898f2436f7ba19b5fab5b4ae13da6b78e7454395661d6000809054906101000a900473ffffffffffffffffffffffffffffffffffffffff16604051808273ffffffffffffffffffffffffffffffffffffffff1673ffffffffffffffffffffffffffffffffffffffff16815260200191505060405180910390a16001905090565b60008060009054906101000a900473ffffffffffffffffffffffffffffffffffffffff1673ffffffffffffffffffffffffffffffffffffffff163373ffffffffffffffffffffffffffffffffffffffff16146104ff576040517f08c379a0000000000000000000000000000000000000000000000000000000008152600401808060200182810382526032815260200180610d686032913960400191505060405180910390fd5b600060149054906101000a900460ff16610564576040517f08c379a0000000000000000000000000000000000000000000000000000000008152600401808060200182810382526035815260200180610d9a6035913960400191505060405180910390fd5b6000600260003373ffffffffffffffffffffffffffffffffffffffff1673ffffffffffffffffffffffffffffffffffffffff16815260200190815260200160002060010154141561061d576040517f08c379a000000000000000000000000000000000000000000000000000000000815260040180806020018281038252601c8152602001807f54686973207573657220686173204e4f5420766f74656420796574210000000081525060200191505060405180910390fd5b600260003373ffffffffffffffffffffffffffffffffffffffff1673ffffffffffffffffffffffffffffffffffffffff168152602001908152602001600020600080820160006101000a81549073ffffffffffffffffffffffffffffffffffffffff0219169055600182016000905550507fd835495b0cc14603f691a3161f6442cbe3602e0745f2c60b948d0d3268e6c6c733604051808273ffffffffffffffffffffffffffffffffffffffff1673ffffffffffffffffffffffffffffffffffffffff16815260200191505060405180910390a16001905090565b60008073ffffffffffffffffffffffffffffffffffffffff168273ffffffffffffffffffffffffffffffffffffffff16141561073057fe5b600060149054906101000a900460ff16610795576040517f08c379a0000000000000000000000000000000000000000000000000000000008152600401808060200182810382526035815260200180610d9a6035913960400191505060405180910390fd5b6000600260003373ffffffffffffffffffffffffffffffffffffffff1673ffffffffffffffffffffffffffffffffffffffff168152602001908152602001600020600101541461084d576040517f08c379a000000000000000000000000000000000000000000000000000000000815260040180806020018281038252601c8152602001807f5468697320757365722068617320616c726561647920766f746564210000000081525060200191505060405180910390fd5b81600260003373ffffffffffffffffffffffffffffffffffffffff1673ffffffffffffffffffffffffffffffffffffffff16815260200190815260200160002060000160006101000a81548173ffffffffffffffffffffffffffffffffffffffff021916908373ffffffffffffffffffffffffffffffffffffffff16021790555042600260003373ffffffffffffffffffffffffffffffffffffffff1673ffffffffffffffffffffffffffffffffffffffff168152602001908152602001600020600101819055503373ffffffffffffffffffffffffffffffffffffffff167f80eacb8485891d1331e1057618388e157b8496244c3b2eab9302445007b46811600260003373ffffffffffffffffffffffffffffffffffffffff1673ffffffffffffffffffffffffffffffffffffffff16815260200190815260200160002060000160009054906101000a900473ffffffffffffffffffffffffffffffffffffffff16600260003373ffffffffffffffffffffffffffffffffffffffff1673ffffffffffffffffffffffffffffffffffffffff16815260200190815260200160002060010154604051808373ffffffffffffffffffffffffffffffffffffffff1673ffffffffffffffffffffffffffffffffffffffff1681526020018281526020019250505060405180910390a260019050919050565b60008060009054906101000a900473ffffffffffffffffffffffffffffffffffffffff1673ffffffffffffffffffffffffffffffffffffffff163373ffffffffffffffffffffffffffffffffffffffff1614610aeb576040517f08c379a0000000000000000000000000000000000000000000000000000000008152600401808060200182810382526032815260200180610d686032913960400191505060405180910390fd5b600260008373ffffffffffffffffffffffffffffffffffffffff1673ffffffffffffffffffffffffffffffffffffffff16815260200190815260200160002060000160009054906101000a900473ffffffffffffffffffffffffffffffffffffffff169050919050565b60026020528060005260406000206000915090508060000160009054906101000a900473ffffffffffffffffffffffffffffffffffffffff16908060010154905082565b60008060009054906101000a900473ffffffffffffffffffffffffffffffffffffffff1673ffffffffffffffffffffffffffffffffffffffff163373ffffffffffffffffffffffffffffffffffffffff1614610c40576040517f08c379a0000000000000000000000000000000000000000000000000000000008152600401808060200182810382526032815260200180610d686032913960400191505060405180910390fd5b600060149054906101000a900460ff16610cc2576040517f08c379a00000000000000000000000000000000000000000000000000000000081526004018080602001828103825260198152602001807f566f74696e6720697320616c726561647920434c4f5345442e0000000000000081525060200191505060405180910390fd5b60008060146101000a81548160ff0219169083151502179055507fd027f2ec970e91ce28ac9b4d8c78f89288e3b6029357e79cbd81578f250aa4a16000809054906101000a900473ffffffffffffffffffffffffffffffffffffffff16604051808273ffffffffffffffffffffffffffffffffffffffff1673ffffffffffffffffffffffffffffffffffffffff16815260200191505060405180910390a1600190509056fe4f6e6c792074686520636f6e7472616374206f776e65722063616e20706572666f726d2074686973206f7065726174696f6e566f74696e672069732063757272656e746c79206e6f74206f70656e2e20506c656173652074727920616761696e206c617465722ea265627a7a723058203f7bb12ac657cb3eecd7be2a8d0913d97d613b3dda25ba5c9b64bb5577e2271f64736f6c63430005090032608060405234801561001057600080fd5b5060405161014d38038061014d8339818101604052604081101561003357600080fd5b81019080805190602001909291908051906020019092919050505080600060146101000a81548160ff021916908315150217905550816000806101000a81548173ffffffffffffffffffffffffffffffffffffffff021916908373ffffffffffffffffffffffffffffffffffffffff16021790555050506095806100b86000396000f3fe6080604052348015600f57600080fd5b506004361060285760003560e01c80631bbef39914602d575b600080fd5b6033604d565b604051808215151515815260200191505060405180910390f35b600060149054906101000a900460ff168156fea265627a7a72305820cc6ee9640b28d7883b6cb912f21a1891167167e7b889622f4819dd903b8cdd4d64736f6c63430005090032",
  "source": "pragma solidity ^0.5.9;\r\n\r\nimport './AccessControlled.sol';\r\n\r\ncontract Voting is AccessControlled {\r\n    \r\n    AccessControlled _AccessControlled;\r\n\t// Vote Struct. It defines a custom type to be used to store values for every vote received.\r\n\tstruct Vote {\r\n\t\taddress receiver;\r\n\t\tuint256 timestamp;\r\n\t}\r\n\r\n\t// The main votes state variable of the type 'mapping'. This will be like a hash-map of all votes collected from each voter.\r\n\tmapping(address => Vote) public votes;\r\n\r\n\t// Define events we wish to emit\r\n\tevent AddVote(address indexed voter, address receiver, uint256 timestamp);\r\n\tevent RemoveVote(address voter);\r\n\tevent StartVoting(address startedBy);\r\n\tevent StopVoting(address stoppedBy);\r\n\r\n\t// Main constructor of the contract. It sets the owner of the contract and the voting status flag to false.\r\n\tconstructor() AccessControlled(msg.sender, false) public {\r\n\t\t_AccessControlled = new AccessControlled(msg.sender, false);\r\n\t}\r\n\r\n\tfunction startVoting() external onlyOwner returns(bool) {\r\n\t\trequire(!isVoting, \"Voting is already OPEN.\");\r\n\t\tisVoting = true;\r\n\t\temit StartVoting(owner);\r\n\t\treturn true;\r\n\t}\r\n\r\n\tfunction stopVoting() external onlyOwner returns(bool) {\r\n\t\trequire(isVoting, \"Voting is already CLOSED.\");\r\n\t\tisVoting = false;\r\n\t\temit StopVoting(owner);\r\n\t\treturn true;\r\n\t}\r\n\r\n\tfunction addVote(address receiver) external returns(bool) {\r\n\t\tassert(receiver != address(0));\r\n\t\trequire(isVoting, \"Voting is currently not open. Please try again later.\");\r\n\t\trequire(votes[msg.sender].timestamp == 0, \"This user has already voted!\");\r\n\r\n\t\t// Set values for the Vote struct\r\n\t\tvotes[msg.sender].receiver = receiver;\r\n\t\tvotes[msg.sender].timestamp = now;\r\n\r\n\t\temit AddVote(msg.sender, votes[msg.sender].receiver, votes[msg.sender].timestamp);\r\n\t\treturn true;\r\n\t}\r\n\r\n\tfunction removeVote() external onlyOwner returns(bool) {\r\n\r\n\t\trequire(isVoting, \"Voting is currently not open. Please try again later.\");\r\n\t\trequire(votes[msg.sender].timestamp != 0, \"This user has NOT voted yet!\");\r\n\r\n\t\tdelete votes[msg.sender];\r\n\r\n\t\temit RemoveVote(msg.sender);\r\n\t\treturn true;\r\n\t}\r\n\r\n\tfunction getVote(address voterAddress) external view returns(address candidateAddress) {\r\n\t\trequire(msg.sender == owner, \"Only the contract owner can perform this operation\");\r\n\t\treturn votes[voterAddress].receiver;\r\n\t}\r\n}\r\n\r\n",
  "sourcePath": "D:\\Prasad\\upgrad\\Solidity\\solidity101\\myTruffleProject\\contracts\\Voting.sol",
  "compiler": {
    "name": "solc",
    "version": "0.5.9+commit.e560f70d.Emscripten.clang"
  },
  "schemaVersion": "3.4.3",
  "updatedAt": "2021-09-12T15:25:32.415Z",
  "devdoc": {
    "methods": {}
  },
  "userdoc": {
    "methods": {}
  }
}